{
  "_format": "hh-sol-artifact-1",
  "contractName": "AppRegistry",
  "sourceName": "contracts/AppRegistry.sol",
  "abi": [
    {
      "inputs": [],
      "stateMutability": "nonpayable",
      "type": "constructor"
    },
    {
      "anonymous": false,
      "inputs": [
        {
          "indexed": false,
          "internalType": "address",
          "name": "user",
          "type": "address"
        },
        {
          "indexed": false,
          "internalType": "address",
          "name": "deployment",
          "type": "address"
        }
      ],
      "name": "ApplicationRegistered",
      "type": "event"
    },
    {
      "anonymous": false,
      "inputs": [
        {
          "indexed": false,
          "internalType": "address",
          "name": "user",
          "type": "address"
        },
        {
          "indexed": false,
          "internalType": "address",
          "name": "deployment",
          "type": "address"
        }
      ],
      "name": "ApplicationRemoved",
      "type": "event"
    },
    {
      "anonymous": false,
      "inputs": [
        {
          "indexed": true,
          "internalType": "bytes32",
          "name": "role",
          "type": "bytes32"
        },
        {
          "indexed": true,
          "internalType": "bytes32",
          "name": "previousAdminRole",
          "type": "bytes32"
        },
        {
          "indexed": true,
          "internalType": "bytes32",
          "name": "newAdminRole",
          "type": "bytes32"
        }
      ],
      "name": "RoleAdminChanged",
      "type": "event"
    },
    {
      "anonymous": false,
      "inputs": [
        {
          "indexed": true,
          "internalType": "bytes32",
          "name": "role",
          "type": "bytes32"
        },
        {
          "indexed": true,
          "internalType": "address",
          "name": "account",
          "type": "address"
        },
        {
          "indexed": true,
          "internalType": "address",
          "name": "sender",
          "type": "address"
        }
      ],
      "name": "RoleGranted",
      "type": "event"
    },
    {
      "anonymous": false,
      "inputs": [
        {
          "indexed": true,
          "internalType": "bytes32",
          "name": "role",
          "type": "bytes32"
        },
        {
          "indexed": true,
          "internalType": "address",
          "name": "account",
          "type": "address"
        },
        {
          "indexed": true,
          "internalType": "address",
          "name": "sender",
          "type": "address"
        }
      ],
      "name": "RoleRevoked",
      "type": "event"
    },
    {
      "inputs": [],
      "name": "DEFAULT_ADMIN_ROLE",
      "outputs": [
        {
          "internalType": "bytes32",
          "name": "",
          "type": "bytes32"
        }
      ],
      "stateMutability": "view",
      "type": "function"
    },
    {
      "inputs": [],
      "name": "OPERATOR_ROLE",
      "outputs": [
        {
          "internalType": "bytes32",
          "name": "",
          "type": "bytes32"
        }
      ],
      "stateMutability": "view",
      "type": "function"
    },
    {
      "inputs": [
        {
          "internalType": "address",
          "name": "user",
          "type": "address"
        },
        {
          "internalType": "address",
          "name": "deployment",
          "type": "address"
        }
      ],
      "name": "addDeployment",
      "outputs": [],
      "stateMutability": "nonpayable",
      "type": "function"
    },
    {
      "inputs": [
        {
          "internalType": "address",
          "name": "user",
          "type": "address"
        }
      ],
      "name": "getDeployment",
      "outputs": [
        {
          "internalType": "address",
          "name": "",
          "type": "address"
        }
      ],
      "stateMutability": "view",
      "type": "function"
    },
    {
      "inputs": [
        {
          "internalType": "bytes32",
          "name": "role",
          "type": "bytes32"
        }
      ],
      "name": "getRoleAdmin",
      "outputs": [
        {
          "internalType": "bytes32",
          "name": "",
          "type": "bytes32"
        }
      ],
      "stateMutability": "view",
      "type": "function"
    },
    {
      "inputs": [
        {
          "internalType": "bytes32",
          "name": "role",
          "type": "bytes32"
        },
        {
          "internalType": "uint256",
          "name": "index",
          "type": "uint256"
        }
      ],
      "name": "getRoleMember",
      "outputs": [
        {
          "internalType": "address",
          "name": "",
          "type": "address"
        }
      ],
      "stateMutability": "view",
      "type": "function"
    },
    {
      "inputs": [
        {
          "internalType": "bytes32",
          "name": "role",
          "type": "bytes32"
        }
      ],
      "name": "getRoleMemberCount",
      "outputs": [
        {
          "internalType": "uint256",
          "name": "",
          "type": "uint256"
        }
      ],
      "stateMutability": "view",
      "type": "function"
    },
    {
      "inputs": [
        {
          "internalType": "address",
          "name": "user",
          "type": "address"
        }
      ],
      "name": "getSettings",
      "outputs": [
        {
          "internalType": "string",
          "name": "",
          "type": "string"
        }
      ],
      "stateMutability": "view",
      "type": "function"
    },
    {
      "inputs": [
        {
          "internalType": "bytes32",
          "name": "role",
          "type": "bytes32"
        },
        {
          "internalType": "address",
          "name": "account",
          "type": "address"
        }
      ],
      "name": "grantRole",
      "outputs": [],
      "stateMutability": "nonpayable",
      "type": "function"
    },
    {
      "inputs": [
        {
          "internalType": "bytes32",
          "name": "role",
          "type": "bytes32"
        },
        {
          "internalType": "address",
          "name": "account",
          "type": "address"
        }
      ],
      "name": "hasRole",
      "outputs": [
        {
          "internalType": "bool",
          "name": "",
          "type": "bool"
        }
      ],
      "stateMutability": "view",
      "type": "function"
    },
    {
      "inputs": [
        {
          "internalType": "address",
          "name": "user",
          "type": "address"
        }
      ],
      "name": "removeDeployment",
      "outputs": [],
      "stateMutability": "nonpayable",
      "type": "function"
    },
    {
      "inputs": [
        {
          "internalType": "bytes32",
          "name": "role",
          "type": "bytes32"
        },
        {
          "internalType": "address",
          "name": "account",
          "type": "address"
        }
      ],
      "name": "renounceRole",
      "outputs": [],
      "stateMutability": "nonpayable",
      "type": "function"
    },
    {
      "inputs": [
        {
          "internalType": "bytes32",
          "name": "role",
          "type": "bytes32"
        },
        {
          "internalType": "address",
          "name": "account",
          "type": "address"
        }
      ],
      "name": "revokeRole",
      "outputs": [],
      "stateMutability": "nonpayable",
      "type": "function"
    },
    {
      "inputs": [
        {
          "internalType": "address",
          "name": "user",
          "type": "address"
        },
        {
          "internalType": "string",
          "name": "settings",
          "type": "string"
        }
      ],
      "name": "setSettings",
      "outputs": [],
      "stateMutability": "nonpayable",
      "type": "function"
    },
    {
      "inputs": [
        {
          "internalType": "bytes4",
          "name": "interfaceId",
          "type": "bytes4"
        }
      ],
      "name": "supportsInterface",
      "outputs": [
        {
          "internalType": "bool",
          "name": "",
          "type": "bool"
        }
      ],
      "stateMutability": "view",
      "type": "function"
    }
  ],
  "bytecode": "0x60806040523480156200001157600080fd5b506200001f60003362000051565b6200004b7f97667070c54ef182b0f5858b034beac1b6f3089aa2d3188bb1e8929f4fa9b9293362000051565b620001b6565b6200005d828262000061565b5050565b620000788282620000a460201b6200079a1760201c565b60008281526001602090815260409091206200009f9183906200081e62000144821b17901c565b505050565b6000828152602081815260408083206001600160a01b038516845290915290205460ff166200005d576000828152602081815260408083206001600160a01b03851684529091529020805460ff19166001179055620001003390565b6001600160a01b0316816001600160a01b0316837f2f8788117e7eff1d82e926ec794901d17c78024a50270940304540a733656f0d60405160405180910390a45050565b60006200015b836001600160a01b03841662000164565b90505b92915050565b6000818152600183016020526040812054620001ad575081546001818101845560008481526020808220909301849055845484825282860190935260409020919091556200015e565b5060006200015e565b61117380620001c66000396000f3fe608060405234801561001057600080fd5b50600436106100f55760003560e01c80639010d07c11610097578063c02f7f5011610066578063c02f7f501461021a578063ca15c8731461022d578063d547741f14610240578063f5b541a61461025357600080fd5b80639010d07c146101c157806391d14854146101ec5780639a810404146101ff578063a217fddf1461021257600080fd5b806336568abe116100d357806336568abe146101685780633d54a51d1461017b57806375c5d70c1461018e5780637706d1f6146101a157600080fd5b806301ffc9a7146100fa578063248a9ca3146101225780632f2ff15d14610153575b600080fd5b61010d610108366004610d4e565b610268565b60405190151581526020015b60405180910390f35b610145610130366004610d78565b60009081526020819052604090206001015490565b604051908152602001610119565b610166610161366004610dad565b610293565b005b610166610176366004610dad565b6102bd565b610166610189366004610dd9565b610340565b61016661019c366004610e19565b61049b565b6101b46101af366004610edb565b610512565b6040516101199190610f22565b6101d46101cf366004610f55565b6105be565b6040516001600160a01b039091168152602001610119565b61010d6101fa366004610dad565b6105dd565b61016661020d366004610edb565b610606565b610145600081565b6101d4610228366004610edb565b6106fb565b61014561023b366004610d78565b61075e565b61016661024e366004610dad565b610775565b61014560008051602061114783398151915281565b60006001600160e01b03198216635a05180f60e01b148061028d575061028d82610833565b92915050565b6000828152602081905260409020600101546102ae81610868565b6102b88383610875565b505050565b6001600160a01b03811633146103325760405162461bcd60e51b815260206004820152602f60248201527f416363657373436f6e74726f6c3a2063616e206f6e6c792072656e6f756e636560448201526e103937b632b9903337b91039b2b63360891b60648201526084015b60405180910390fd5b61033c8282610897565b5050565b6001600160a01b038083166000908152600260205260408120548492161561037a5760405162461bcd60e51b815260040161032990610f77565b826000816001600160a01b03163b116103e45760405162461bcd60e51b815260206004820152602660248201527f41707052656769737472793a2041646472657373206973206e6f74206120636f6044820152651b9d1c9858dd60d21b6064820152608401610329565b846103fd600080516020611147833981519152336105dd565b806104105750336001600160a01b038216145b61042c5760405162461bcd60e51b815260040161032990610fb8565b6001600160a01b0386811660008181526002602090815260409182902080546001600160a01b031916948a16948517905581519283528201929092527f3d0793df34ff3f0805141327ed026d87b687550ff0475eb72c9ddbeacdfd8d97910160405180910390a1505050505050565b816104b4600080516020611147833981519152336105dd565b806104c75750336001600160a01b038216145b6104e35760405162461bcd60e51b815260040161032990610fb8565b6001600160a01b0383166000908152600360209081526040909120835161050c92850190610cb5565b50505050565b6001600160a01b038116600090815260036020526040902080546060919061053990610fef565b80601f016020809104026020016040519081016040528092919081815260200182805461056590610fef565b80156105b25780601f10610587576101008083540402835291602001916105b2565b820191906000526020600020905b81548152906001019060200180831161059557829003601f168201915b50505050509050919050565b60008281526001602052604081206105d690836108b9565b9392505050565b6000918252602082815260408084206001600160a01b0393909316845291905290205460ff1690565b6001600160a01b03808216600090815260026020526040902054829160019116151581146106465760405162461bcd60e51b815260040161032990610f77565b8261065f600080516020611147833981519152336105dd565b806106725750336001600160a01b038216145b61068e5760405162461bcd60e51b815260040161032990610fb8565b6001600160a01b0384811660008181526002602090815260409182902080546001600160a01b0319811690915582519384529093169282018390527fa9f19f0cd3c046e455e5167338ca2f48e54aa9f9890c9e423316ff7b3c49d9b7910160405180910390a15050505050565b6001600160a01b0380821660009081526002602052604081205490918391600191161515811461073d5760405162461bcd60e51b815260040161032990610f77565b5050506001600160a01b039081166000908152600260205260409020541690565b600081815260016020526040812061028d906108c5565b60008281526020819052604090206001015461079081610868565b6102b88383610897565b6107a482826105dd565b61033c576000828152602081815260408083206001600160a01b03851684529091529020805460ff191660011790556107da3390565b6001600160a01b0316816001600160a01b0316837f2f8788117e7eff1d82e926ec794901d17c78024a50270940304540a733656f0d60405160405180910390a45050565b60006105d6836001600160a01b0384166108cf565b60006001600160e01b03198216637965db0b60e01b148061028d57506301ffc9a760e01b6001600160e01b031983161461028d565b610872813361091e565b50565b61087f828261079a565b60008281526001602052604090206102b8908261081e565b6108a18282610982565b60008281526001602052604090206102b890826109e7565b60006105d683836109fc565b600061028d825490565b60008181526001830160205260408120546109165750815460018181018455600084815260208082209093018490558454848252828601909352604090209190915561028d565b50600061028d565b61092882826105dd565b61033c57610940816001600160a01b03166014610a26565b61094b836020610a26565b60405160200161095c92919061102a565b60408051601f198184030181529082905262461bcd60e51b825261032991600401610f22565b61098c82826105dd565b1561033c576000828152602081815260408083206001600160a01b0385168085529252808320805460ff1916905551339285917ff6391f5c32d9c69d2a47ea670b442974b53935d1edc7fd64eb21e047a839171b9190a45050565b60006105d6836001600160a01b038416610bc2565b6000826000018281548110610a1357610a1361109f565b9060005260206000200154905092915050565b60606000610a358360026110cb565b610a409060026110ea565b67ffffffffffffffff811115610a5857610a58610e03565b6040519080825280601f01601f191660200182016040528015610a82576020820181803683370190505b509050600360fc1b81600081518110610a9d57610a9d61109f565b60200101906001600160f81b031916908160001a905350600f60fb1b81600181518110610acc57610acc61109f565b60200101906001600160f81b031916908160001a9053506000610af08460026110cb565b610afb9060016110ea565b90505b6001811115610b73576f181899199a1a9b1b9c1cb0b131b232b360811b85600f1660108110610b2f57610b2f61109f565b1a60f81b828281518110610b4557610b4561109f565b60200101906001600160f81b031916908160001a90535060049490941c93610b6c81611102565b9050610afe565b5083156105d65760405162461bcd60e51b815260206004820181905260248201527f537472696e67733a20686578206c656e67746820696e73756666696369656e746044820152606401610329565b60008181526001830160205260408120548015610cab576000610be6600183611119565b8554909150600090610bfa90600190611119565b9050818114610c5f576000866000018281548110610c1a57610c1a61109f565b9060005260206000200154905080876000018481548110610c3d57610c3d61109f565b6000918252602080832090910192909255918252600188019052604090208390555b8554869080610c7057610c70611130565b60019003818190600052602060002001600090559055856001016000868152602001908152602001600020600090556001935050505061028d565b600091505061028d565b828054610cc190610fef565b90600052602060002090601f016020900481019282610ce35760008555610d29565b82601f10610cfc57805160ff1916838001178555610d29565b82800160010185558215610d29579182015b82811115610d29578251825591602001919060010190610d0e565b50610d35929150610d39565b5090565b5b80821115610d355760008155600101610d3a565b600060208284031215610d6057600080fd5b81356001600160e01b0319811681146105d657600080fd5b600060208284031215610d8a57600080fd5b5035919050565b80356001600160a01b0381168114610da857600080fd5b919050565b60008060408385031215610dc057600080fd5b82359150610dd060208401610d91565b90509250929050565b60008060408385031215610dec57600080fd5b610df583610d91565b9150610dd060208401610d91565b634e487b7160e01b600052604160045260246000fd5b60008060408385031215610e2c57600080fd5b610e3583610d91565b9150602083013567ffffffffffffffff80821115610e5257600080fd5b818501915085601f830112610e6657600080fd5b813581811115610e7857610e78610e03565b604051601f8201601f19908116603f01168101908382118183101715610ea057610ea0610e03565b81604052828152886020848701011115610eb957600080fd5b8260208601602083013760006020848301015280955050505050509250929050565b600060208284031215610eed57600080fd5b6105d682610d91565b60005b83811015610f11578181015183820152602001610ef9565b8381111561050c5750506000910152565b6020815260008251806020840152610f41816040850160208701610ef6565b601f01601f19169190910160400192915050565b60008060408385031215610f6857600080fd5b50508035926020909101359150565b60208082526021908201527f41707052656769737472793a204465706c6f796d656e74206e6f7420666f756e6040820152601960fa1b606082015260800190565b6020808252601b908201527f41707052656769737472793a204e6f7420617574686f72697a65640000000000604082015260600190565b600181811c9082168061100357607f821691505b6020821081141561102457634e487b7160e01b600052602260045260246000fd5b50919050565b7f416363657373436f6e74726f6c3a206163636f756e7420000000000000000000815260008351611062816017850160208801610ef6565b7001034b99036b4b9b9b4b733903937b6329607d1b6017918401918201528351611093816028840160208801610ef6565b01602801949350505050565b634e487b7160e01b600052603260045260246000fd5b634e487b7160e01b600052601160045260246000fd5b60008160001904831182151516156110e5576110e56110b5565b500290565b600082198211156110fd576110fd6110b5565b500190565b600081611111576111116110b5565b506000190190565b60008282101561112b5761112b6110b5565b500390565b634e487b7160e01b600052603160045260246000fdfe97667070c54ef182b0f5858b034beac1b6f3089aa2d3188bb1e8929f4fa9b929a164736f6c6343000809000a",
  "linkReferences": {},
  "deployedLinkReferences": {}
}